:040000006F0010314C
:10000400363701000100010000014A756C202035DB
:10001400203230323232303A30313A333800000054
:1000240000000000000000000000000000000000CC
:1000340000000000000000000000000000000000BC
:1000440000000000000000000000000000000000AC
:10005400000000000000000000000000000000009C
:10006400000000000000000000000000000000008C
:10007400000000000000000000000000000000007C
:10008400000000000000000090000020F4050020A3
:10009400A9BDF9F594000020000000000000000054
:1000A40096000020980000200000000000000000DE
:1000B4003C040020000000009C0000200000000020
:1000C40032010020C60000200E010020A400002000
:1000D400A6000020A8000020AA000020AC000020F8
:1000E400AE000020B0000020D401002068020020EF
:1000F400B6000020B8000020BA000020BC00002098
:10010400BE00002004030020A0030020C40000203F
:1001140001A001A001A001A001A001A001A001A0D3
:1001240001A001A001A001A001A001A001A001A0C3
:1001340001A001A001A001A001A001A001A001A0B3
:1001440001A001A001A0411122C6B71700401384E9
:10015400819F26C40357040083D4C7094AC2F98C7B
:100164008DC0239E9708138981A793F7140089C72C
:100174005C4099C308448297858081C42104E316B6
:1001840089FE3244A24412494101730020303717DA
:1001940000408357E7098357E70983D6A19FF58F6A
:1001A40093F7F7CFC207C18399C3231FF7087300DE
:1001B40020303727004083476700858B81C78547F8
:1001C4002303F700138701B45C573843850723A63C
:1001D400F1B6914663E6E60297C600E09386C60D43
:1001E4000A0736971843369702871947637AF70048
:1001F40023A601B6854723A0F1B819A023A601B60A
:10020400730020300947E37DF7FE8D47EDB71947AA
:10021400E378F7FE83C701B785CF238801B623A609
:1002240001B623AA01B8854723A0F1B883C7118278
:10023400FD17E207E187A380F182E343F0FC37274F
:1002440000408347070093F7B70F2300F7004DBF23
:100254009147D9BF011122CE26CCA307010037371D
:100264000040834747009946BD8B6388D7063147D2
:10027400639AE70297140000938484B337340040F0
:1002840098508347A40093F7F70FB1CB83478400BA
:10029400A307F1007DD7D45005469305F10001452D
:1002A4000297F9BF1147639CE702971400009384F7
:1002B40024B03734004098508347A40093F7F70FD5
:1002C40099CF83478400A307F1007DD7D450054616
:1002D4009305F10001450297F9BF83475700724423
:1002E400E244056173002030011122CE26CCA3071D
:1002F400010037370040834747409946BD8B638CE4
:10030400D7063147639CE70297140000938444AAFC
:100314003734004003A7C4098347A44093F7F70F79
:10032400A9CF83478440A307F1007DD783A6040A9D
:1003340005469305F10005450297E9BF1147639E01
:10034400E702971400009384A4A63734004003A75F
:10035400C4098347A44093F7F70F85C383478440B8
:10036400A307F1007DD783A6040A05469305F1008F
:1003740005450297E9BF834757407244E24405614B
:1003840073002030011122CE26CCA3070100374789
:100394000040834747809946BD8B638CD70631471D
:1003A400639CE70297140000938484A037440040C0
:1003B40003A784118347A48093F7F70FA9CF83473A
:1003C4008480A307F1007DD783A6C4110546930555
:1003D400F10009450297E9BF1147639EE7029714AC
:1003E40000009384E49C3744004003A784118347AE
:1003F400A48093F7F70F85C383478480A307F10094
:100404007DD783A6C41105469305F10009450297DB
:10041400E9BF834757807244E2440561730020308A
:10042400011122CE26CCA3070100374700408347A1
:1004340047C09946BD8B638CD7063147639CE7025E
:10044400971400009384C4963744004003A74419CA
:100454008347A4C093F7F70FA9CF834784C0A307AA
:10046400F1007DD783A6841905469305F1000D4557
:100474000297E9BF1147639EE70297140000938433
:1004840024933744004003A744198347A4C093F737
:10049400F70F85C3834784C0A307F1007DD783A6E4
:1004A400841905469305F1000D450297E9BF83477A
:1004B40057C07244E24405617300203013870183FE
:1004C4001C43504393861700B3B7F600B2975CC33E
:1004D40014C3B7F700E023A2070073002030B71756
:1004E4000040930670052380D704130780FA238005
:1004F400E7040100010003C6B7041376F60DA385D3
:10050400C704238007041376050259CE03C6A70047
:10051400118A1DE22380D7042380E704010001002F
:1005240003C7A700136747002385E7009307004B21
:1005340001000100FD17EDFFB71700409306700599
:100544002380D704130780FA2380E7040100010005
:100554007D892394A700010001000100010023808C
:1005640007042380D7042380E70401000100372710
:10057400004093061005A303D78023800704B71710
:100584000040130770052380E704130780FA2380D3
:10059400E7040100010003C7B70413670708A38534
:1005A400E704238007048280137605042DCA03C65A
:1005B400A700418A1DE22380D7042380E7040100B9
:1005C400010003C7A700136707012385E70093070A
:1005D400007D01000100FD17EDFFB71700409306F1
:1005E40070052380D704130780FA2380E7040100F1
:1005F40001007D89136505042394A700010001000F
:1006040001000100238007042380D7042380E7042A
:10061400010001003727004093062005A9BF23806D
:10062400D7042380E7040100010003D78700136780
:10063400070C2394E700A1B7411181460146814587
:10064400114506C6B12AB717004013077005238069
:10065400E704130780FA2380E7040100010003C7BD
:100664006704136717002383E70423800704B24059
:100674004101828081460146814511451522B71703
:100684000040130770052380E704130780FA2380D2
:10069400E704010001007D572396E70203C76704BE
:1006A400136717002383E7042380070401A0BD47D1
:1006B4003305F50201007D1575FD8280411122C4C8
:1006C40026C206C6AA84014463179400B240224499
:1006D40092444101828005041305803E4204C13FD7
:1006E4004180DDB72303048015472303E480010020
:1006F4002302A480828083076480E3CE07FE230361
:100704000480828083076480E3CE07FE034544802F
:10071400828083076480E3CE07FE2302A480828064
:10072400411126C44AC24EC006C61377F50BAD4725
:10073400AA892E8995446306F70019456537653FF4
:100744008D444E854537FD59FD1463983401B240FC
:10075400A24412498249410182801355090113754B
:10076400F50F453F2209CDB7011126CC06CEB704BB
:10077400080051371545BD37713769372AC6A53F7B
:1007840032459377150089EB136515001375F50F42
:10079400F240E24405618280FD14E9FC0145CDBFCD
:1007A400397126DC4ADA4ED852D656D45AD25ED0A3
:1007B40006DE62CE66CCB7E700E07D5783AA070069
:1007C40022C603AA470023A0E71823A2E718B717F5
:1007D4000040130770052380E704130780FA238081
:1007E400E70483C74704930B75FFB684E20793FBC2
:1007F400FB0F8546AA892E8B328937240040E18776
:10080400015763FA76016308D5008946130700028D
:100814006313D5000157D98F93F7F70FB71C004026
:100824002382FC0411472303E4801305F00F5D3D8C
:10083400094CD135636D7C11B7050700DA9537870C
:100844000700795563F2E504B3879500636EF702F8
:10085400370B0800A94733EB65016399F90689E46E
:100864008144513D26850DA0DA850945553D05098C
:100874000345F9FFFD14050B693D81C49377FB0F14
:10088400FDF7DD3569FD7D55B71700401307700589
:100894002380E704130780FA2380E70403C747048F
:1008A400418B2382E704F250B7E700E023A05711FD
:1008B40023A24711E25432445259C259325AA25A1D
:1008C400125B825B724CE24C21618280A547639586
:1008D400F90685691309F00FB3069900B3742B0167
:1008E400B6941349F9FFB3749900856B33796901A0
:1008F400416B9387F9FFB3F7270199E363FC340154
:1009040093D94900C147E3E637FF99BF0569C16937
:100914007D19D9B71305800D638869011305000299
:100924006384790113051008CA85DD3B353D21DD5B
:100934004E99B3843441D9B7DA852D45D533CA9459
:10094400E30099F205097D3BA30FA9FED5BF938768
:10095400F9FF93F7F70F6361FC0C83C71C041307BB
:100964003008631FF70437070800636BEB04B30711
:100974009B00B706100063F5D704334BEB0089479F
:100984006393F9068980D549E38C04ECDA8509453B
:10099400413B11090327C9FF91472320E480030742
:1009A4006480E34E07FE23033481FD17EDFBFD1441
:1009B400110B81C49377FB0FE9FF7D3371F5E1B52A
:1009C400B717004003C75704B70708001377070297
:1009D40019E3B78707007955E378FBEA33079B00EF
:1009E400E3FFE7F855B58547E382F9F2DA852D454B
:1009F400053B9389F4FFE38504E6293393F7390033
:100A040091EB832604800327090093074900E39AA6
:100A1400E6E43E89CE84F1BFB5476396F900130539
:100A2400900BC93135BDB1471305B00AE38BF9FE0C
:100A340099476391F904B7050800B365BB002D45D8
:100A4400C53181448D4BA14975396396740183275F
:100A540004802320F9008504E39834FF832704806D
:100A640013172B01635507002312F900D5BB23226A
:100A7400F900FDB39D476399F90281451305B0045C
:100A84004531BD442320090023220900FD599D3925
:100A940093F77400CA9703C70700FD14398D2380A8
:100AA400A700E39634FF6DBBA1476392F9046D3947
:100AB4008144630D0B008D479304C0036308FB005E
:100AC4009304000563048B01930440041375C50764
:100AD400E30895D819453931393905452131268539
:100AE4000D3909453D314931E31C05D669BB9147B0
:100AF4006399F90013056006F536F53E1305900970
:0C0B04000DB7E38F09D4F154A9BB000029
:100B100097110020938181DD177100201301814E10
:100B20001305400897F5FF1F9385C54D1706002054
:100B3000130606F663FAC5008322050023A05500BC
:100B400011059105E3EAC5FE17D50000130585BC24
:100B5000970500209385C5F31386018163FAC500CC
:100B60008322050023A0550011059105E3EAC5FE87
:100B7000138501819385C1666377B5002320050045
:100B80001105E36DB5FEFD42739002BC8D4273907A
:100B900042809302800873A0023097F2FF1F938275
:100BA000624693E2320073905230971200009382B3
:100BB000621B73901234730020303D432A876373A5
:100BC000C3029377F700BDEFADE5937606FF3D8A4C
:100BD000BA960CC34CC30CC74CC74107E36BD7FE96
:100BE00011E28280B306C3408A06970200009696FF
:100BF0006780A6002307B700A306B7002306B70047
:100C0000A305B7002305B700A304B7002304B7006A
:100C1000A303B7002303B700A302B7002302B70062
:100C2000A301B7002301B700A300B7002300B7005A
:100C3000828093F5F50F93968500D58D93960501E7
:100C4000D58D61B79396270097020000969686820D
:100C5000E78086FA9680C1171D8F3E96E374C3F82D
:100C6000A5B79317050141815D8D3707FF009357A5
:100C700085001307F70FF98F370701FF130707F0F8
:100C80002205798D5D8D37170F0F93574500130798
:100C9000F7F0F98F37F7F0F01307070F1205798D8A
:100CA0005D8D373733339357250013073733F98F6B
:100CB00037D7CCCC1307C7CC0A05798DC98F3757E6
:100CC000555513D5170013075755798D37B7AAAA6D
:100CD00086071307A7AAF98F5D8D9D47638BF502E1
:100CE00063EDB7009547638AF50263E6B702914763
:100CF00071816385F50201458280C1476389F500F2
:100D000093070002638CF500A1476181DDB7418143
:100D1000828065818280698182806D8182800111FB
:100D200022CC26CA06CE2E84B384070139C291454F
:100D30003EC63AC43D372247B2471375F50F639953
:100D4000970033458700F2406244D24405618280B7
:100D5000850783C6F7FF358CA146137614000580FE
:100D600001C6298C1374F40FFD1693F6F60FF5F6F1
:100D7000F9B7939645009318450093F6F60F93F84C
:100D8000F80F63969700918233C5E6006DBF850723
:100D900003C6F7FFB18E214693958601E18586064D
:100DA00093F6F60F63D40500B3C616017D161376CD
:100DB000F60F7DF2F9B7011122CC26CA06CE2E8499
:100DC000B384070139C295453EC63AC4593D22470E
:100DD000B2471375F50F6399970033458700F240CA
:100DE0006244D24405618280850783C6F7FF358C53
:100DF000A14613761400058001C6298C1374F40FE4
:100E0000FD1693F6F60FF5F6F9B79396350093189D
:100E1000350093F6F60F93F8F80F639697008D82DE
:100E200033C5E6006DBF850703C6F7FFB18E2146C7
:100E300093958601E185860693F6F60F63D4050047
:100E4000B3C616017D161376F60F7DF2F9B70111C0
:100E500022CC26CA06CE2E84B384070139C2994516
:100E60003EC63AC4FD3B2247B2471375F50F63995E
:100E7000970033458700F2406244D2440561828086
:100E8000850783C6F7FF358CA146137614000580CD
:100E900001C6298C1374F40FFD1693F6F60FF5F6C0
:100EA000F9B7939625009318250093F6F60F93F85B
:100EB000F80F63969700898233C5E6006DBF8507FA
:100EC00003C6F7FFB18E214693958601E18586061C
:100ED00093F6F60F63D40500B3C616017D1613769C
:100EE000F60F7DF2F9B7011122CC26CA06CE2E8468
:100EF000B384070139C29D453EC63AC49D3322479B
:100F0000B2471375F50F6399970033458700F24098
:100F10006244D24405618280850783C6F7FF358C21
:100F2000A14613761400058001C6298C1374F40FB2
:100F3000FD1693F6F60FF5F6F9B79396150093188C
:100F4000150093F6F60F93F8F80F639697008582D5
:100F500033C5E6006DBF850703C6F7FFB18E214696
:100F600093958601E185860693F6F60F63D4050016
:100F7000B3C616017D161376F60F7DF2F9B77971B7
:100F800022D426D24AD04ECE06D6AA892E84BA843E
:100F9000338907016311F90291C62285A145D13138
:100FA0001374F50F33459400B250225492540259F1
:100FB000F2494561828003C50700850715CAA1452E
:100FC0003EC636C432C271391246A246B247298C97
:100FD0001374F40FA1451317840161870604137479
:100FE000F40F6354070033C48900FD15EDF55DB7B8
:100FF000298CCDB7797122D426D24AD04ECE06D6CE
:10100000AA892E84BA84338907016312F90299C62A
:101010002285C145B931131405014180334594003F
:10102000B250225492540259F2494561828003C55C
:10103000070085071DCAA1453EC636C432C2153118
:101040002205298C1246A246B24742044180A1459E
:1010500013170401060442044187418063540700CA
:1010600033C48900FD15EDF54DB72205298CC5B7B0
:10107000797122D426D24AD04ECE06D6AA892E84A1
:10108000BA84338907016311F90291C62285930559
:101090000002C13E2A8433459400B2502254925437
:1010A0000259F2494561828003C5070085070DC6D4
:1010B000A1453EC636C432C26D361246A246B2477C
:1010C0006205298CA1452287060463540700334436
:1010D0003401FD15EDF945BF6205298CE5B74111D5
:1010E00006C6034705009D46AE873288630AD708C7
:1010F00063EEE6009546630DD70463E7E606914686
:10110000630CD7020145B24041018280C1466305AC
:10111000D70893060002630DD708A146E314D7FE53
:10112000034705018346D5000346C5008345850076
:1011300003454500A935C1BF034705018346D500D6
:101140000346C5008345850003454500C93E65BF8C
:10115000034705018346D5000346C5008345850046
:1011600003454500893945B7034705018346D50046
:101170000346C5008345850003454500C93961B76D
:10118000034705018346D5000346C5008345850016
:1011900003454500893B85BF035705018346D500BC
:1011A0000346C5008355850003554500A135A1BF01
:1011B00018498346D5000346C5000C45B240484156
:1011C00041017DB571CA757126C34AC1CEDED2DC3C
:1011D000D6DADAD8DED6E2D4E6D2EAD0EECE06C748
:1011E00022C52A892E8AB284B689C14A97BB0000DB
:1011F000938B0B07054B094C914C154D97BD000087
:10120000938D8D09268463F39A0041444204418002
:10121000740801473306EA00034606003685DE857A
:101220003AC636C4EF5060083247A2467C0805072C
:101230008D06E34187FE3E86CA8517B5000013057B
:10124000A5026385690317B500001305A502638F26
:10125000890117B500001305A5026389990117B527
:1012600000001305A5026383A9016E85818CC20469
:10127000C180EF40306D229AD1F4BA402A449A449A
:101280000A49F659665AD65A465BB65B265C965CA6
:10129000065DF64D496182808280D8418946630BA4
:1012A000D70095476366D7008D476308F7008147ED
:1012B0003E85828023120600DDBF98419147E318E6
:1012C000F7FE75D57C45411122C426C206C62E8480
:1012D000AA8499C783D5A50003558400829701E9A4
:1012E000BC4891C78355A400035584008297B2403F
:1012F0002244814792443E8541018280DC4191C76E
:1013000009476386E7020D45828003D7850097066B
:10131000002083D6A6DD1545636AD7009707002015
:1013200083D7E7DCB6976353F7000145828083D704
:1013300085009706002083D666DB014763EBD70262
:101340009705002083D5A5DAB69563D4B702958FAB
:1013500017070020130787D9C2075843C18393D6C4
:1013600037003697034707009D8BB357F74013F7B5
:1013700017002312E60055BFDC412320060091C769
:101380000947638BE7001545828003D785008547B1
:101390000145E3EAE7FE828083D785008546014761
:1013A00063E8F600138741818607BA9703D70700E1
:1013B0002312E6000145C5B717B70000130787EEF3
:1013C00017B60000130606F183574700636EF50059
:1013D00083566700BE966379D5001447B307F5407E
:1013E0008607B6972390B7003107E31FC7FC8280BA
:1013F00017B70000130707EB8147BA861148035659
:1014000047006362C50283556700B295637DB500EE
:101410003147B387E702118D0605B6979C473E9585
:1014200003550500828085073107E39A07FD0145D2
:101430008280D8412320060085466300D7081DC757
:10144000411122C426C24AC006C6894732892E8469
:10145000AA84630AF7048D47630EF70A8147B240F6
:101460002244924402493E854101828098418D4741
:101470006319D70283D6850097B70000938787E268
:1014800097B50000938505E503D6470063E7C600DE
:1014900003D76700329763C8E606B107E396F5FE07
:1014A00095473E85828098418D47E31AD7FA03D548
:1014B00085003D3F2312A90055B794418D47E39223
:1014C000E6FE83D5850017B700001307A7DD814727
:1014D000BA8691480358470063E90503035667003D
:1014E000429663D4C5023147B387E702B697984363
:1014F00085468147E307D7FA89469547E313D7FA2C
:101500000347150359DF814769BF85073107E39317
:1015100017FD79B798418D47E313D7F439E983561E
:1015200084000355A40017B700001307A7D797B589
:101530000000938525DA8357470063EEF6000356D3
:1015400067003E9663F9C6001047B387F6408607EA
:10155000B2972390A7003107E39FE5FCE38004F0F6
:10156000BC44E38D07EE8355A400035584008297A5
:10157000F5B57C41CDD783D5A5000355840082976E
:10158000E31E05EC69BF3D479387C1856364B700DF
:101590008D8FC10741472E866373B70041464206CF
:1015A000AA8541823E856F30B02F411122C426C2E8
:1015B00006C617B400001304E4CE97B40000938469
:1015C00064D1035664000844814506063104EFF0F7
:1015D000CFDEE31894FEB24022449244410182805F
:1015E000A1473367F6023346F602B29683C7060078
:1015F00015E105453315E500E2076205E1876185E0
:1016000091C5C98F2380F600054582801345F5FFFB
:10161000E98FCDBF33D5E74005898280797117B551
:101620000000130525CB06D626D24AD04ECE52CC8A
:1016300022D4EF409043712B814417B90000130965
:1016400029CAFD5917BA0000130A0ACA09E9B2509B
:10165000225492540259F249624A456182801D44E3
:101660003C00A29783C507004A857D14EF40902D6A
:10167000E31834FF8504A6855285EF40B02C8D23F6
:10168000F1B71387C164834707003D8D97B700000A
:10169000938747CFAA9703C507002300A70082803E
:1016A000894723AEF16423A001647971914797B50E
:1016B0000000938525CC17B50000130525C406D678
:1016C00023A8F16426D222D402C402C62318010042
:1016D00002CA02CC231E010093840164EF409026CD
:1016E00088408523FD29094597F0FF1FE78040F5D5
:1016F000930710FC854528002304F100292B85471A
:101700006310F5042A84094597F0FF1FE78040F332
:10171000B7475B0F938777513EC49C40954528009F
:1017200093E717F92306F100FD2109ED97B50000B5
:10173000938545C417B50000130585BDEF40902083
:1017400001443DA89306400615464C080145EF307C
:10175000801E9547E31CF5FC8347710113F7170FB3
:1017600071F79840B98BE393E7FC03478101930637
:1017700000091376070FE31BD6FA318BE398E7FADB
:101780002285B2502254925445618280797126D2CA
:10179000938441669C4006D622D46381A708938730
:1017A000C1659443894701476388F60023AEF1641D
:1017B0008D572304F10005479307170014101010EC
:1017C0002A8493052700BA96B29739ED45562384AB
:1017D000C6FEB5562384D7FE1C10BE952384C5FED5
:1017E00028009305370005293DC9854609464C0860
:1017F0000145EF30401489476313F50683474101E3
:101800001307000E93F7070E639BE704034751018C
:101810001377070E6315F70423A20166B250225412
:1018200088409254456182801307F0032384E6FECA
:10183000280035572384E7FEF92E15C18546054655
:101840004C080145EF30200F8547631AF5008347A8
:10185000410193F7170881E723A28166C1B7893553
:1018600075BF7971014506D622D426D24AD002C46A
:1018700002C62318010002CA02CC231E0100A303E2
:10188000010029379387C165984389476303F702AD
:1018900023AEF1648347710093F7F70F13871700A6
:1018A0001377F70FA303E1001810BA970D57238A97
:1018B000E7FE914723A8F1648347710017B5000044
:1018C000130545A693F7F70F138717001377F70F44
:1018D000A303E1001810BA97130750FC238AE7FE10
:1018E00083454101EF4010068345510117B50000C3
:1018F000130545A3EF401005034671004C08014550
:10190000EF2010772A8409CD056597F0FF1FE78047
:1019100040D27933B25022549254025945618280A8
:10192000A94629462C00EF300001A947E31EF5FC2B
:1019300017B900001309899FA9443C00A29783C5E9
:1019400007004A850504EF40E07FE31894FE938783
:10195000C1819C4381CB154597F0FF1FE78040CEA6
:1019600005454DBF83478100054705458D8BFD1714
:10197000E36CF7F845B7197197B500009385C59EDC
:1019800017B500001305C59BD2D486DEA2DCA6DA0B
:10199000CAD8CED6D6D2DAD0DECEE2CCEF40807A2C
:1019A0009387816503AA070063050A0223A00166E5
:1019B00023AC016423AA01640145F6506654D65451
:1019C0004659B659265A965A065BF64B664C09613B
:1019D0008280413D11E523A0016623AA0164F1BF85
:1019E0009387C1659C43014489C785572304F1024D
:1019F00005449C084157A297238CE7FC9C080D578F
:101A0000A297938A0165A38CE7FC03A70A009C08B0
:101A1000A297136717FB238DE7FC23AE01649C0894
:101A20000557A297130B440013094401A38DE7FC4B
:101A30001377F90FDA87900893861700B297238CF3
:101A400007FC93F7F60FE398E7FE9389016683A7F7
:101A500009001379F90F63930710894723AEF164E6
:101A60009C083E998D57230CF9FC9C08338787000E
:101A700083A70A0093056401281093E717FAA306C9
:101A8000F7FE512A5DC5854645464C080145EF20C5
:101A9000906AC547631FF508014481449D4B130BB1
:101AA000000413191400930A190093065101568675
:101AB000814505453536AA857400228601450D36D7
:101AC0004A869306510181450545193E13091400C4
:101AD0008547137CF90F631DF50093065101568667
:101AE0008145FD3C11E5E28463E48B0023AA216576
:101AF0004A84E31869FB23860164014421497C0080
:101B0000A29703C507000504AD3EE31A24FF83C76F
:101B1000C16491EB03A709009307F0036305F70085
:101B20008347C100C1E323A0016623AC016423AA5B
:101B30000164BD3601E923A0016623AC016423AA38
:101B40000164014A97B500009385058217B500002E
:101B500013054580EF40005F528585B53C108144F8
:101B60003E9B138C4164930B000483A70900FD176F
:101B700063D2F402E28626868145054595341396A4
:101B80001400DA860506AA850145993C8504E39E82
:101B900074FDE1B5E39CF4FE13961400DA860506A5
:101BA0008545DDB723A0916681E4854723ACF164C8
:101BB000814793854164214770003E9603460600A5
:101BC000B386B70085072380C600E397E7FE054A82
:101BD0008DB723A0016623AC016423AA016461BB15
:101BE00059BB411122C406C6373400408347340034
:101BF000094593E70704A301F40097F0FF1FE7806E
:101C000020A48347340093F7F70BA301F400B240FC
:101C1000224441018280C2054111C18106C6EF30D4
:101C20002005373700408347B70093F7F70FE5FFEC
:101C30008347570093F70704FDD7B240054541019C
:101C40008280411106C6EF20B07FB24005454101B8
:101C5000828001118146500081451D4506CE22CC6F
:101C600026CA4AC802C202C42316010097F0FF1F09
:101C7000E78040AB17B500001305058CEF40804CA2
:101C8000014417B900001309E98BA1445C00A29735
:101C900083C507004A850504EF40C04AE31894FE57
:101CA00017B500001305858AEF40205CF2406244BE
:101CB000D24442490145056182804111B717004075
:101CC00006C622C403C4470417A500001305C57F38
:101CD000EF4040471374F40F93777400FD1793F7A8
:101CE000F70F194717A500001305857E636FF700EE
:101CF00017A70000130707798A07BA979C43BA977A
:101D0000828717A500001305657DEF40A04317B536
:101D1000000013052582EF404055B24022440145A2
:101D20004101828017A500001305C57BF9BF17A5E7
:101D300000001305657BD1BF17A500001305C57B07
:101D4000E9B717A500001305257CC1B717A500004A
:101D50001305857C5DBF17A500001305A57C75B72D
:101D60001D711305800486CEA2CC97E0FF1FE7808B
:101D7000406FEF20904A1306800281450A85EFE00C
:101D8000DFE3F167938707208A85214405453EC23A
:101D900023048100EF2070130D3717A500001305F1
:101DA0002570EF40804C7535130680028145281060
:101DB000EFE0BFE08967938707582C103ED60145B6
:101DC00085472304F10223088102EF201010EF1051
:101DD0008034854717F7FF1F130787CB930600044E
:101DE00013060004814513050002EF10801EEF105A
:101DF000600FF92CDD2AEF10E0551304703E014509
:101E00008145EF20D04599E16371A402EF10C01421
:101E100017A500001305C569EF402045EF10800CA1
:101E2000EFF0CFFFEF106055D5BF0100C9BF13051C
:101E30004000828079714ECED149B309350322D456
:101E400026D24AD052CC56CA5AC85EC606D6001808
:101E500097F4FF1F9384C4E3A69903A989002A8AF3
:101E6000AE8B93171900BD07C19B3301F14083A7C7
:101E7000C900B28A0A8BB1C30A86D6855E8582976D
:101E8000635A050403D6090097A500009385C5761B
:101E900017A5000013058576EF40C02AFD571301F2
:101EA00004FDB2503E85225492540259F249624ACE
:101EB000D24A424BB24B456182804A8681450A85AF
:101EC000EFE0BFCF4A8663D32A015686DE855A8566
:101ED000EF30001DD147330AFA02DA85D2949044DC
:101EE00003D50400EF20E0138147E35A05FA03D637
:101EF000040097A500009385257017A50000130521
:101F0000A57159BF1DCD411106C683C701829DE34E
:101F100017A600001306C66397A500009385C56D3C
:101F200017A5000013050566EF40C0217D55B2409E
:101F300041018280214693858195EF3060160145ED
:101F4000FDB77D55828019E17D558280411122C403
:101F500006C683C701822A8485E717A600001306F8
:101F6000266097A500009385256917A50000130535
:101F70006561EF40201D7D55B240224441018280C1
:101F8000AA85214613858195EF30200F75D521460E
:101F9000A28505454535E34005FE2146A28513850A
:101FA0008195EF30E00F0145C1BF15CD83C7018298
:101FB0008DE7411117A600001306C65B97A5000028
:101FC0009385856317A500001305C55B06C6EF4022
:101FD0006017B2407D554101828083C7419523003F
:101FE000F500014582807D55828003C701828147CB
:101FF000631E070C011106CE22CC26CA4AC84EC663
:1020000052C456C2EF10D049FD576340050A13066B
:10201000C004814513854195EFE03FBA8547238A87
:10202000F19489679387075823ACF194A147238ED5
:10203000F19417F4FF1F1304A4C517F9FF1F130928
:1020400029CA97A400009384245B97A90000938970
:10205000E95817AA0000130A2A5497AA0000938A85
:102060002A5610444C4003550400EF200040634AB8
:10207000A00403560400A68539E15285EF40800C88
:1020800010444C4003550400EF10B079635B050227
:1020900003560400A6855685EF40C00A5104E3129A
:1020A00024FD85472380F1828147F2406244D24477
:1020B0004249B249224A924A3E85056182804E8554
:1020C000E1BF1C48E1DF22858297C9BF3E8582803F
:1020D0009387019A1387019B98C31387219CD8C3C8
:1020E0001387419D98C71387619ED8C70145828099
:1020F000011106CE22CC26CA930770022A8663F30A
:10210000A70297A500009385E55217A500001305C7
:10211000E552EF4020037D542285F2406244D244D0
:1021200005618280BD47AE8463E9A700054533158C
:10213000C50032C6EF20301432464116DD47014457
:10214000E3ECC7FC0545A6853315C500EF20B012AA
:10215000E1B7930770022A8663F3A702411197A59E
:1021600000009385254D17A500001305254D06C6D3
:10217000EF30507DB240FD552E8541018280BD4734
:1021800063EDA7008547B397A700B71600409DC52C
:1021900003A7860AD98F23A4F60A4116DD4763ED0B
:1021A000C70005453316C500B717004091CD03A5FC
:1021B000870C498E23A4C70C814521A803A7C60A12
:1021C000D98F23A6F60AD1BF03A5C70C498E23A633
:1021D000C70C2E8582800CC1232205002324050014
:1021E0002326050001458280411122C426C206C66D
:1021F0002A84AE8499C58347E500B384F500C20400
:10220000C1801C40A6852285829789476303F5001B
:1022100081EC232204002324040023160400B2408E
:1022200022449244410182800347F4005C4023161B
:102230009400BA971CC4E5B72E86814575B7105136
:1022400041055DB7C16769768146FD17050613979D
:10225000060141836364B7003E8582803307D50061
:1022600003470700B98F214713F8170085836305DB
:102270000800B18FC207C1837D171377F70F6DF781
:102280008506F1B70CC118C52306F50050C12320FF
:102290000502B685410581B70C51410571BF5C410E
:1022A000411122C426C24AC006C62A84AE8432899D
:1022B00091C38297894522855937814709C913E51A
:1022C0008700B24022449244024941018280184C66
:1022D00093E404F83E8523009700184CA3002701DF
:1022E000CDB75D7186C6A2C4A6C2CAC04EDE52DC9E
:1022F00056DA5AD85ED69547638FF6000D464537B5
:10230000B640264496440649F259625AD25A425B74
:10231000B25B616182809387F5FF93F7F70F0D47FA
:10232000AE8A6362F71883443600034746002A8961
:10233000A204D98CC204C184939B040193DB0B01DA
:10234000638D0B009396170017B700001307473BE8
:10235000369703570700637377030D46D6854A8582
:102360003D3F2A849377350009811375F5037198F1
:102370005D8C0A05137434F0418D59B783491600FA
:10238000034726000946A209B3E9E900416733077C
:102390007741E34737FD17B700001307E7363E974D
:1023A000034A070017B7000013074735BA9783C7DA
:1023B000070002CA231D01003EC8230EB100014BD5
:1023C000B3876901231CF1008327090030000C0842
:1023D0004A85829719C1114651B7224641F2050B31
:1023E000420B135B0B01E39D6BFD860463050A0042
:1023F00093047B008D8493F4F40F938524004A8525
:102400003D3D45E5832789012380570183278901C5
:10241000A3809700814713F7F70F636197068947F9
:102420003ECA814A854BB3875901231CF10083279B
:10243000090030000C084A8593940A018297C180F4
:10244000832789018356C100850A63040A0413D7D0
:1024500034009D880907B3949B00BA97E204038770
:102460000700E1849DC2D98C2380970093970A01CD
:10247000C183E3EA67FB01458147D5BD0327890195
:102480003E9723010700850779B793C4F4FFF98CC1
:10249000E1BF13971A00BA9713D786002380E7008D
:1024A000A380D700E1B70D45C1BF0945F1B7397128
:1024B00006DE22DC26DA4AD84ED652D456D25AD07C
:1024C0009547638EF6000D46D93BF2506254D254C4
:1024D0004259B259225A925A025B21618280AA84DF
:1024E0002E8A91476383D5008547834A16000347A8
:1024F000260003493600A20AB3EAEA000347460071
:102500002209C20A3369E900420993DA0A411359E0
:102510000941139B0A01931909011147135B0B0130
:1025200093D90901639AE70063880900416713079B
:1025300007F00D46639AE90205473ACA3EC8231CD4
:10254000610191464E876394D700333730019C4038
:102550003000231DE100230E41010C0826858297DF
:10256000114619E122460DC2D28526850D3B2A84EB
:102570009377350009811375F50371985D8C0A0511
:10258000137434F0418D91B78D473ECA9C400C08BE
:1025900030002685829795452685553105E59C4C6A
:1025A000135B8B0093D98900238047019C4CA38047
:1025B0006701238157019C4CA381370123822701A6
:1025C000814765BF0945EDBF1D71A2CC5EDE86CE99
:1025D000A6CACAC8CEC6D2C4D6C2DAC062DC66DA1F
:1025E0006AD86ED695472A84AE8B63E5D7020D462E
:1025F000DE8522856D31F6406644D6444649B649AB
:10260000264A964A064BF25B625CD25C425DB25D42
:1026100025618280BD47328A6380F50C054D9307A2
:10262000B00703475A0061D7E916E312D7FC834489
:102630003A0083464A00A204D58CC204C184139B8D
:102640000401135B0B01E3040BFAE3E267FB914621
:1026500093171B006315DD0093077B008D87E3183C
:10266000F7F803491A0083472A000946220933690B
:10267000F90042091359094193190901C16793D916
:102680000901B3876741E3C537F78547930C6A00B3
:102690006AC83ECA230E7101E68D014C1147B3870B
:1026A0008901231CF100631FED0293573C00C20710
:1026B000C183D29783C7670093767C00B3D7D74096
:1026C000858B231DF1001C4030000C082285829769
:1026D000114705C1114629BF114D9307007B91B7E2
:1026E000568C75BF83C70D0083C61D00A207D58F0A
:1026F000C9BF2246E31E06EE930A1C00C20A93DA03
:102700000A01890DE31E5BFD8D473ECA014B914DC9
:10271000B3876901231CF1006316BD0593573B0085
:10272000C207C183D29783C7670013777B00B3D7F3
:10273000E740858B231DF1001C4030000C082285EA
:10274000829793071B00C207C183890C631A6C012F
:1027500095452285ED34814709CD13E5870061BD9C
:102760003E8B7DB783C70C0003C71C00A207D98F1F
:10277000D1B7184C93D9890093DA8A0023007701E6
:10278000184C3E85A300370123012701184CA301F3
:1027900057012302970085B55D7186C6A2C4A6C203
:1027A000CAC04EDE52DC56DA5AD85ED662D466D241
:1027B0006AD09D476382F6020D46D534B640264462
:1027C00096440649F259625AD25A425BB25B225C85
:1027D000925C025D61618280034A16008347260095
:1027E000054C220A336AFA00420A135A0A41931B23
:1027F0000A011C4193DB0B01AE8A034D460083495D
:102800003600834C660003495600230EB10062C8AF
:1028100002CA231C7101231D010030000C08AA8488
:10282000829719C1114619A022460DC2D685268568
:10283000BD342A849377350009811375F5037198A7
:102840005D8C0A05137434F0418D8DBF89473ECAF3
:102850009C40A20930000C08B3E9A90126858297A3
:10286000C209220993D90941336999018357C100EB
:10287000139B09014209135B0B011359094113C74B
:10288000F9FFB377FB003377E900D98F231DF100FF
:102890009C4062CA30000C082685829741F522468A
:1028A00051F68D473ECA9C400C0830002685829721
:1028B0009D452685EFF0BF980DED9C4C93DB8B007A
:1028C000135B8B00238057019C4CA38077012381ED
:1028D00047019C4CA381670123823701984C9317D1
:1028E0000901C183A183A302F700230327018147C4
:1028F000B9B70945EDBF2E888348C50083C50500DB
:10290000B286814713970701418363651701054626
:102910006FF0FF98184513963700850732970346E6
:102920000700E311B6FE0323470042860283938724
:10293000C6FFC207C1831307C00F6368F70C0111FC
:1029400052C4138AE6FF4EC6AE8993150A0122CC03
:1029500026CA4AC806CE56C23289AA84C1813285A7
:102960004A9A3684834A0600EFF0DF8D83471A00C7
:1029700003470A00A207D98F631EF50863860A0081
:102980001305D002639F5903930730107514239FDA
:10299000F4001376F40F930519002685A93F937769
:1029A000350085E39357250093F7F70399EB83D719
:1029B000C401014491C7639F0A002685EFF0DF8DB3
:1029C0002285F2406244D2444249B249224A924AA4
:1029D000056182801387C7FF420741839306C00FBA
:1029E00013654400E3EFE6FCC8489385E7FFB304B2
:1029F000B500C20523003501C181EFF0BF842380FB
:102A0000A4002181A380A40065BF05450A051365C4
:102A10001500828021450A05136515005DB7B14791
:102A200063EAA70097A70000938747C30A053E956E
:102A30000841828017A50000130585C5828089E5BD
:102A400023220500014582809307001063F6B7003A
:102A500023220500094582801306861550C1DDB783
:102A60009C41085109472320060023120600638376
:102A7000E7026367F7000547638CE7000145828042
:102A80001147638BE7002147E39AE7FE6FE01F875A
:102A90006FE03F9A6FE05F8E6FE03F804111956776
:102AA00006C622C4938707B063EEA7002A84EF20EE
:102AB000401195473305F50233558502B240224453
:102AC00041018280EF20E00FB7470F009387072472
:102AD0003355F5029307E02E3305F502C5B74111D2
:102AE0004AC006C622C426C2B727004003C7070053
:102AF0000149118B01CB03C7070005491377B70FB5
:102B00002380E700138401B47C48930400109D8C5B
:102B100063739600B284344009476386E60663E532
:102B2000E6048D476388F606630609000854BD373E
:102B3000EF20C00F784885476311F702B7270040A0
:102B400083C70700918B89E70854893FEF20000E67
:102B500083C711828507A380F182B2402244924448
:102B6000024901454101828023A601B623A0E1B8B4
:102B7000138581B926863E95EF2080527C48BE940D
:102B800023AA91B855B723A601B61307F00FE34D5A
:102B9000F7F8F9BF23A601B685472388F1B669B7D0
:102BA000397122DC130600022A848145280006DEE2
:102BB000EFE0AF80A1472308F1001C542C000D4525
:102BC0003EC6970700009387C7F122D63ED4EF1088
:102BD000D02FF2506254014521618280FD5719CDFA
:102BE000635EB00041112E86AA850D4506C6EF1022
:102BF0003048B24081473E85410182803E858280D7
:102C0000011122CC26CA2A848544280006CE02C49B
:102C100002C6A3039100EFF0EFAE13057100EFF0D1
:102C2000CFB88347710099E3A3039100A2460346FE
:102C3000710097A50000938525DB17A500001305FB
:102C4000E5DAEF302050130600268145138501B4E4
:102C5000EFD0BFF6834771002382F1B6A24723A4C9
:102C6000F1B6970700009387E7DF23A0F1B419C4FA
:102C70004146A285138541B8EF208042138401B4F8
:102C800097B7000083C787A817E7FF1F13074705FB
:102C9000970600009386E6DA0146970500009385C3
:102CA00065DC2285EFF00FDE9377350099C77D55FF
:102CB000F2406244D2440561828009819377F50332
:102CC0007D55FDF7228523A081B6D93D0145CDB7BD
:102CD000B337A000A388F1B609CD411106C6EF10A5
:102CE0007057B240938701B488DFCCDF01454101C2
:102CF000828001458280011106CE2AC6A38001820E
:102D0000EFE0BF8A3245ED3D635E0500F24097A5D6
:102D10000000938565CD17A50000130525CB05613F
:102D20006F304042B727004003C72700C1661367D2
:102D300017002381E70037E700E02320D71003C7FF
:102D400007001377B70F2380E700F2400561828008
:102D5000411122C4138401B4384006C626C29147EB
:102D6000631FF708EF10104F1306803E8146EF10E7
:102D7000B07223ACA1D883C701B7D9E78356440505
:102D8000138681B983C541B622855536098193746E
:102D9000F50399E483D5C1B5B1C948488135B9A0D7
:102DA0002685B539AA86268697A500009385C5C3D2
:102DB00017A50000130545BDEF30C03897A50000EA
:102DC000938585C217A50000130545BEEF308037F7
:102DD000035644059146938581B917A50000130554
:102DE000A5C0EFE02FBEAD47E396F4FA238801B605
:102DF00023A601B623AA01B8854723A0F1B8B240A3
:102E0000224492444101828017A500001305C5BAEF
:102E1000EF304033E1BF83C711B785CB938701B44F
:102E2000885FCC5F411106C6EF10704391E585675E
:102E3000938777BB63F9A700814513056008A388D2
:102E400001B6EFE06FD7B240410119B73717004024
:102E5000A5CD8327870C93E787002324F70C37172A
:102E600000408327C70C93E707012326F70C21476F
:102E7000B717004083A6C70C93E6160023A6D70C0D
:102E800093168501E18663D8060483A6870C93E632
:102E9000260023A4D70C03A6870C7D17060513660E
:102EA000160023A4C70C1377F70F9386870C1375AE
:102EB000F50F69F383A7870C93E707019CC29C4237
:102EC00093E787009CC282808327C70C93E7870023
:102ED0002326F70C69B783A6C70C93E6260023A622
:102EE000D70C55BF83C72182BDC7011122CC4AC868
:102EF00052C456C206CE26CA4EC6138901DA13043E
:102F0000000B930A0008130A800B814522853D3F80
:102F100081450145253F814541450D3FCA89814491
:102F200003C509008504854593F4F40F0537A1090D
:102F3000E39854FF05041374F40F0509E31744FDE7
:102F4000F240624423810182D2444249B249224A7A
:102F5000924A0561828082800147138601DA9305D7
:102F600000082145B306E600814785072380060057
:102F700093F7F70FA106E39AB7FE0507E314A7FE40
:102F800085472381F182B9BF93178501E18763CD1E
:102F900007029307F00363E9B70213F7750085474B
:102FA000B397E7000E0513D73500938501DAAA958C
:102FB000BA9593F7F70F03C7050001CAD98F23808D
:102FC000F50085472381F182828093C7F7FFF98F4F
:102FD000FDB75D7152DC13DA36009D8AB336D0003E
:102FE0005AD85ED63E8B931B0601B307DA003EC269
:102FF00093DB0B0193371B00A6C24EDE56DA66D276
:103000006AD06ECE86C6A2C4CAC062D4AA8D2E8DE6
:10301000B28ADE89AA84814C3EC4924733847941C6
:10302000420441806396FC06B64026449644064915
:10303000F259625AD25A425BB25B225C925C025DE8
:10304000F24D61618280B3078700050403CA07005F
:10305000420493078D00418013FCF70F6A891376B1
:103060001A003AC621C25A86CA8526850509293F13
:103070001379F90F3247135A1A00E31289FF8504B6
:1030800093F4F40FB386B441638056036A8C628D67
:10309000E31B34FBDE99850CC20993FCFC0F93D92A
:1030A0000901A5BF2246C9B7EE84D5B741119145A4
:1030B000054506C622C4EF10702691450945371410
:1030C0000040EF10B0258327840C9145114593E70C
:1030D00027002324F40CEF1070248327840C9145DF
:1030E000414593E747002324F40CEF103023832756
:1030F000840C9145214593E707012324F40CEF103C
:10310000F0218327840CB24093E787002324F40C3A
:10311000224441018280411106C622C4413F371436
:1031200000408327C40C1305800C93E74700232637
:10313000F40C97D0FF1FE780A0508327840C8145B3
:103140001305E00A93E747002324F40C013381457B
:103150000145ED3981454145D539814513050004C7
:10316000F531814513051008D53181451305F00C63
:10317000F13981451305000AD13981451305000C49
:10318000F13181451305600AD13181451305800A6B
:10319000753981451305F003553981451305300D07
:1031A0007531814501455D3181451305500D7939F2
:1031B000814513050008593981451305900D793172
:1031C00081451305100F593181451305A00DBD39F7
:1031D00081454945A53981451305B00D853981459E
:1031E00013050004A5318145130500028531814591
:1031F0000945A93981451305D008893981455145CB
:10320000B13181451305400A913181451305600AAA
:10321000353999332244B24081451305F00A410102
:1032200035B1011106CE22CC130760082E86630D3E
:10323000E508636BA70013070008630CE502F24082
:10324000624401450561828041679306A7FF630AD6
:10325000D5006D17E315E5FE93C5F5FFC205C181E5
:1032600031A09965938555AAE30BB6FCEFE0CF94A6
:10327000F9B799CD85476382F5029795000093854C
:10328000A579179500001305A579EF20B06B45BF10
:1032900097D0FF1FE78080325DB72800416402C4E9
:1032A00002C6EFE03FC61305D4FDEFE06F94420580
:1032B0002AC41305E4FDEFE0AF93A2473E952AC46C
:1032C0002800EFE05FC8A5BF8D679387677305454A
:1032D0006384F500ADF50145EFF09F9F8DB70111B7
:1032E00006CE22CC02C002C202C402C6EFE03FB446
:1032F00097070000938727F32A840A853EC2EFF0E0
:103300009F9F89450145EFE02F8B83552400314570
:10331000EFE08F8A835544003545EFE0EF89835510
:1033200084000545EFE04F89835564000945EFE0CF
:10333000AF88EF10606BA145EFE0EFA499654165A0
:103340006915938555AAEFE02F87F2406244014545
:103350000561828083C7418299EF411106C623A28D
:10336000018223A40182A53FB24085472382F182D6
:1033700001454101828001458280411106C622C477
:10338000EFF07FA9EF10006D1306803E8146EF102D
:10339000B01093874182DC436383A7021304803E0D
:1033A0003354850223A4A182394593550401EFE0EB
:1033B000AF8093150401C1813D45EFD0FFFFB240BE
:1033C00022440145410182809307C00F6300F50448
:1033D00063ECA70097A70000938787AE15C597A752
:1033E0000000938767AC0DA01307E00F97A70000BC
:1033F0009387C7AD630AE5001307F00F97A7000096
:10340000938707ABE31DE5FC3E85828097A700000C
:10341000938787AAD5BF797122D451462A8497957C
:1034200000009385A5E2680006D6EF1070470346BA
:103430000400930544006800EFD07FCA834714005E
:10344000B25022543385A740133515004561828060
:10345000AE8713881700411193158500C29506C6E3
:103460001308F0076371A80297A500009385459E95
:1034700017A500001305059EEF20D04CFD57B24064
:103480003E8541018280B69785071307F00F637B65
:10349000F70097A500009385A59B17A500001305CD
:1034A000E59CD9BF2D4597D0FF1FE780A027814716
:1034B00079D597A500009385A59917A50000130558
:1034C000E59C5DBF9307F00763E8B708411122C48C
:1034D000139435002A940347A4004AC006C626C2A6
:1034E0009307F00F2A8901456304F7042E86AE8402
:1034F00017A500001305859297A5000093854595B3
:10350000EF20504493060010014693958400254512
:1035100097D0FF1FE780002115C197A50000938574
:10352000259317A500001305E590EF20B0417D55C8
:10353000B24022449244024941018280FD57231740
:103540000400231604002305F400835729000145D5
:1035500085072311F900E9BF7D558280797106D670
:1035600022D426D24AD04ECE52CCA307B100930724
:10357000F00763E7A7069387012213193500B38983
:1035800027012A8403C5A90013FAF50FBE84014759
:1035900063034509153D2AC452853D35A2462A8755
:1035A000228697A500009385A58A17A5000013051C
:1035B0006592EF20303985461306F100931584009B
:1035C000294597D0FF1FE780E01509CD97A500009A
:1035D0009385058817A500001305458BEF209036CD
:1035E0007D5715A883C7A9001307F00F639EE70254
:1035F00003D7212201C77D172391E1220347F10060
:103600009307E00F6314F70023928122B38724010C
:103610002385E7000147B250225492540259F249DF
:10362000624A3A85456182801307E00FE398E7FC20
:10363000930700082392F122D1B79307F00763ECB8
:10364000A7020E05138701222A978347A700930636
:10365000C00F01456382D70263E6F60013B5170079
:103660007D1582809306E00F6389D7001307F00F62
:1036700001456383E7007D5582808357E70013058A
:10368000F00F1D8D82801307F007AA87AA86636B4F
:10369000A702138601221308F00713973700329709
:1036A0000347A7003E856300B70201476384070113
:1036B0001387170093170701C183E390E6FE1305F4
:1036C000000882807D5582800111938715004AC8C9
:1036D000131985003E9906CE22CC26CA4EC652C486
:1036E0009307F00763E7A704B69585059307F00FE6
:1036F00036847D5563E7B704B289130A0010A284AB
:1037000063748A0093040010C204C180A6864E86AA
:10371000CA85294597D0FF1FE780C00009CD97953E
:1037200000009385E5721795000013052576EF20BC
:1037300070217D5539A0058C42044180269961F0A5
:103740000145F2406244D2444249B249224A0561ED
:1037500082809307F00763E3A71403D625000111C5
:10376000C1671307F6FF420726CA4EC606CE22CC13
:103770004AC852C456C24183F517AE89AA8463F67B
:10378000E702979500009385A56C17950000130537
:10379000E576EF20301B7D55F2406244D244424929
:1037A000B249224A924A0561828093870122931A84
:1037B0003500338457010347A4009306C00F3E8AA7
:1037C0007D55E30BD7FC63ECE60079D797950000B5
:1037D0009385056817950000130505745DBF930771
:1037E000E00FE365F7FE83C6050003C71500035825
:1037F000E400979500009385A565A68717950000BE
:1038000013058573EF20101403C909008355E400E4
:103810004E861109CA862685453D635B050097954E
:1038200000009385E562179500001305257595B78F
:103830008357E400035704019306F00FCA97C207A9
:103840003A990347A400C1832317F40023182401E5
:10385000BA856314D7009305E00F9306F00FB38782
:10386000F6408D4663E4F6009305C00F630FB70082
:103870002685ED31635B0500979500009385455DD6
:10388000179500001305457129B7B3075A0103D7EF
:10389000C700014505072396E700FDBD7D558280E1
:1038A000797106D622D426D24AD04ECE02C605E27F
:1038B00017960000130686199795000093854559C1
:1038C000179500001305051AEF20D00705A82A89CF
:1038D000035506009307F007328463F3A7022A8694
:1038E0009796000093868616979500009385455617
:1038F0001795000013058518EF20D0047D5535A0DD
:1039000093143500CA9483D7C4009DE7179600002E
:103910001306C613979500009385855317950000ED
:103920001305C517EF2010020145B25022549254DE
:103930000259F24945618280AE898355240091463F
:103940007000EFF0FFB0635F0500179600001306EC
:10395000E60F979500009385A54F17950000130576
:10396000E5159DB70356E100630336033287CE8623
:10397000179600001306860D979500009385454D18
:103980001795000013058515EF20C07B85BF835672
:10399000040003572400979500009385654B179505
:1039A000000013052517EF20E07983552400035507
:1039B000040091467000231701003933635F05004E
:1039C00017960000130686089795000093854548D2
:1039D0001795000013058517C5BD83D7C4008DEB6F
:1039E00003C7A4009307C00FE310F7F48355040046
:1039F0004A85EFF03FADE35905F2979500009385B6
:103A000025451795000013056516EF20A073FDB539
:103A1000FD17C207C1832396F400E39707F0C9B7E7
:103A20001307F5FF4D714207C167232C411323266D
:103A30001114232481142322911423202115232ED1
:103A40003113232A511323286113232671132324AE
:103A50008113232291132320A113232EB11141831B
:103A6000F51703DA412263EAE7089307F0072A8B88
:103A7000AE8B328D63F34701014A2395616393074F
:103A800000082398F162C167138C0122F51752894F
:103A90008144E28A3EC69307F0079319090193D93E
:103AA000090163EE3705C167FD173379F900931DEE
:103AB0003900B307BC0183C7A7001307C00F93F7F2
:103AC000D70F6399E70891C0814B1306C00F81455A
:103AD0004808EFD08F8E83D7AA403247FD17C20720
:103AE000C1836372F7189795000093856536179523
:103AF00000001305A540EF20E064FD548DA87D591A
:103B000069BF91465008A2854E85EFF07F94635BB4
:103B10000500979500009385A533179500001305C0
:103B20002506D1BF83576101C1E383474101910756
:103B30003E9442044180A24783D7E700E363F4FC4C
:103B4000E6948547639BF41263060D0083A70A4140
:103B50002320FD00FD19C20993D909019307F0073D
:103B60007D1963F437011309F007E3162AF3832064
:103B7000C1140324811426850329011483244114CC
:103B80008329C113032A8113832A4113032B0113B1
:103B9000832BC112032C8112832C4112032D01129D
:103BA000832DC1117161828003D6A162E31FF6F6F5
:103BB000CA86EE852287179500001305A5FEEF2023
:103BC00060589305440083464101C2053008C18115
:103BD0004E85EFF0FF87635B0500979500009385A6
:103BE0002527179500001305E5FE31B74808EFF0CB
:103BF0009F820DE1EE85179500001305E5FFEF208C
:103C0000605491465008A2854E85231B0100EFF0B9
:103C1000BFAB21BF63880B001306C00F4C085E8545
:103C2000EF10004883D701631307F0076364F702BE
:103C30001386016383D5A1625685EFF07FC6635B6F
:103C40000500979500009385A520179500001305A2
:103C500065FC55B52398316323998162D247850C61
:103C600023A6F162D9B5B387BA01814C01443EC4A1
:103C7000979D0000938DCD1D7DBDE3DD97EC1386F0
:103C80000163DA856285EFF0BFC1E35505EC9795D6
:103C900000009385E51B179500001305E5F9A1BD0C
:103CA0006971B7078000232E311193870708C16916
:103CB000232481122320211323286111232671112B
:103CC0002326111223229112232C4111232A511150
:103CD0002324811123A2F1221384A122EF00905703
:103CE0000149F519179B0000130B4B02979B00002D
:103CF000938B8BF0131A8900931409018546228651
:103D0000D2852D45C1802310040023110400231205
:103D100004002313040097D0FF1FE780A0A029C54B
:103D2000979500009385C51217950000130585F23D
:103D3000EF2040418320C112032481128547238054
:103D4000F12283244112032901128329C111032A7C
:103D50008111832A4111032B0111832BC110032CE4
:103D6000811001455561828003450400EFF0CFE5E5
:103D7000AA864A86979500009385850D17950000C1
:103D8000130585EFEF20003C034604009307C00FA6
:103D9000630EF60C63E8C7024DC697950000938545
:103DA000250B179500001305E5FEEF20A039A68529
:103DB00013850122EFF00FF1634C0524FD5723001A
:103DC000F40041A09307E00F6302F60A9307F00F97
:103DD000E315F6FC130600109305F00F0A85EFC0FB
:103DE000DFDD930600100A86D2852D4597D0FF1F90
:103DF000E780409305C59795000093856505179565
:103E000000001305A5E8EF20E033979500009385A7
:103E10002504179500001305A5E819BF81479306EF
:103E2000F00F130700103306F1000346060063107D
:103E3000D61C8507E399E7FE83D7212285072391C6
:103E4000F1220509930700082104E315F9EA83D656
:103E5000412203D6212297950000938565FF17958F
:103E60000000130525F6EF20E02DE9B51306C00F7D
:103E700081450A85EFC07FD44A86979500009385D7
:103E800025FD179500001305A5E423120400231156
:103E90000400130AE00FEF20E02A130CF00F979AAA
:103EA0000000938AEAFA835544006371BA049305CB
:103EB000C00F2685EFF08FEA034704009307C00F79
:103EC0006315F7108357240063910710A6851385A7
:103ED0000122EFF02FDF635A050E979500009385BE
:103EE00025F717950000130565C805A091460A86B9
:103EF0002685EFF0EFD56355050297950000938571
:103F000025F517950000130525DEEF20A0239795D2
:103F100000009385E5F3179500001305E5E509BD5D
:103F200003460100630E8609835621009387F6FF3E
:103F3000C207C18363EFF90403471100D6855A8590
:103F4000EF20402083554400834601005000910536
:103F5000C205C1812685EFF0AFCF635B0500979561
:103F600000009385E5EE179500001305A5C671BF07
:103F70000A85EFF04FCA1DE5D6855E85EF20801CCF
:103F80008355440091460A86268523110100EFF0EF
:103F9000AFF383470100035744009107BA972312F8
:103FA000F40011B783470100035764009107BA97E3
:103FB0002313F4008357240085072311F400D1BF95
:103FC00083574400E37AFAEEDDB503576400835665
:103FD00044004A8697950000938585E71795000071
:103FE000130585D5EF2000162392912299BD979550
:103FF00000009385E5E5179500001305A5DFEF2088
:104000006014A68513850122EFF0CFCBE35605E2BD
:10401000979500009385C5E317950000130505CA21
:1040200001BB130101DC232C812223282123232619
:1040300031232E84AA898145328928081306C00FAE
:10404000232E1122232A9122232441232322512388
:1040500023206123232E7121232C8121232A9121C6
:10406000EFC0BFB55146978500009385251E4800D7
:1040700002C0EF10E00229C49307F9FF1307700F85
:104080007D55636AF7381387F9FF4207C16741839B
:10409000F51763E2E738930700080A862C084E8577
:1040A0002310F100EFF0DF97635E050097950000A5
:1040B000938505DA17950000130545F0EF20800879
:1040C0007D5591AE4A86A2856808230C2101231DE7
:1040D0003101EF00F07C4A866C084800EFD02F8059
:1040E000A30CA10011099307800F7D5463E7270FEC
:1040F00083D44122130AF0072684637C9A00930537
:10410000E00F0145EFF02FD81314050141806363E0
:104110008A282285EFF06FD26371250D03D7212203
:10412000894763EAE7089307F00763F39700814440
:10413000138601224165A687130400089308C00F67
:10414000328A9305F0077D1593963700B29603C81F
:10415000A600139707014183631E180163EB8500D6
:1041600013183400329803D3C6008356C800637313
:10417000D3003A8463E3E5086303B708E98F850752
:10418000E394F4FC9307F00763FD8706179600009D
:104190001306068B97950000938585CB1795000035
:1041A000130585E3EF10107A03D441222285EFF046
:1041B000CFC8637425039305C00F2285EFF00FBAB3
:1041C000635B051C97950000938585C817950000D3
:1041D000130545E7EF1010777D5493140401C18057
:1041E0009307F00763F7971E97950000938545C6E0
:1041F00017950000130585E8D1B5FD57B1B7814784
:1042000041B71306C00F8145480AEFC01F9B2286A5
:10421000979500009385C5C317950000130585DDAC
:10422000EF1050729317340081443E9A930AF007BE
:10423000179B0000130BCBC1979B0000938BCB9B6C
:104240008357EA0063E2F402A28513850122EFF0AE
:104250006FA7E35B05F497950000938565BF1795FD
:1042600000001305A5900DA09146500AA685228551
:10427000EFF00F9E6356050297950000938545BDAC
:10428000179500001305C58FEF10D06B2286979508
:1042900000009385E5BB179500001305A5D819B755
:1042A000834751118346411181C78357611191E7BB
:1042B0009106B694C204C18061B793854400C205DB
:1042C000300AC1812285EFF0AF98635B05009795B6
:1042D00000009385E5B7179500001305A58F6DB70E
:1042E000480AEFF04F9315E9DA855E85EF10906587
:1042F000A6859146500A2285231B0110EFF0CFBC02
:10430000834741119107BE948357CA00C204C180FC
:1043100085DBFD172316FA0025B703DC41226285F1
:10432000EFF0AFB18347411191076370F504930536
:10433000F00F6285EFF02FB5931C050193DC0C01A3
:1043400063FB9A0197950000938585B0179500004F
:104350001305C5CB15BF9305C00F6285EFF00FA005
:104360009305E00F6685EFF06F9F4C0A03D541225D
:10437000EFF02FBE635B050097950000938545AD78
:1043800017950000130585BF01B7834741119107B9
:10439000BE940DB7014422859305F00FEFF0AFAE48
:1043A0002A84420541819307F00763FBA700979594
:1043B00000009385E5A9179500001305A5CA19BD4E
:1043C0009305E00FEFF08F99E34E05DE4204418044
:1043D00029B52C082685EFF0CFB7635B05009795CC
:1043E00000009385E5A6179500001305E5CAF9B10D
:1043F000938701220E043E940347A4009307E00F25
:104400006314F70023929122035701009307F007EA
:1044100063FCE70201458320C12303248123832415
:104420004123032901238329C122032A8122832ACC
:104430004122032B0122832BC121032C8121832CB8
:1044400041211301012482800A86CE851385012231
:10445000EFF00FC5E35005FC979500009385459F4D
:1044600017950000130545C591B96D71232481107E
:1044700023229110232021112A842E89B284814580
:104480001306C00F480023261110EFC00FF383C797
:10449000012289EF7D5422858320C11003248110DD
:1044A000832441100329011051618280E30409FE35
:1044B000E35290FE1307F4FF4207C1674183F517EB
:1044C000E3EAE7FC228501464C00EFF06FD52A8431
:1044D000E34205FC69D10344410063D38400268490
:1044E00022862C004A85EF00B03B75B7411106C605
:1044F0008D4763FEA70097950000938525C4179507
:104500000000130525C4EF10F0437D553DA889CD6B
:104510008947638FF50297950000938525C217950B
:1045200000001305E5C3C5B79307C0073305F502BF
:1045300097C7FF1F9387C77F3E9578418347070042
:1045400093F7B70F2300F7000145B2404101828085
:104550009307C0073305F50297C7FF1F9387477D71
:104560003E9578418347070093E74700E1BF41113B
:1045700006C68D4763F0A70297950000938505BC9A
:1045800017950000130505BCEF10D03B7D55B240D8
:10459000410182809307C0073305F50297C7FF1FCB
:1045A0009387077999462E863E9578418347070081
:1045B00093F7C70F6389D50263E0B6029546630699
:1045C000D60297950000938565B7179500001305EF
:1045D00025B3EF1030375DBF9D46638CD500A146F3
:1045E00093E73700E9BF93E717002300F700014581
:1045F00079BF93E72700D5BF011106CE22CC8D47A6
:1046000063F1A70297950000938545B317950000C5
:10461000130545B3EF1010337D55F2406244056138
:1046200082802A842EC6712B29473305E502B245C4
:104630009307C0070D813355B50215053355E502C3
:104640003304F40297C7FF1F9387876E42054181A9
:104650003E947C502390A7000145C1B7411106C686
:104660008D4763F0A70297950000938525AD1795B8
:104670000000130525ADEF10F02C7D55B24041012F
:1046800082809307C0073305F50297C7FF1F938702
:10469000276A3E9578418347070093F7F70F89CD46
:1046A00089466381D50297950000938525A91795C2
:1046B00000001305E5A6C1B793F7770F2300F700B5
:1046C00001456DBF93E78700D5BF011106CE22CC0F
:1046D00026CA4AC84EC68D4763F4A70297950000C4
:1046E0009385C5A5179500001305C5A5EF10902566
:1046F0007D55F2406244D2444249B249056182800C
:104700002E8491E997950000938545A317950000A5
:104710001305859CE1BF1309C0073309250383C72F
:10472000050097C9FF1F9389A960AA8485454E9902
:104730006388071003250903EFD09F9B03254903D6
:104740009145EFD0FF9A032549038545EFD07FA01F
:10475000032709078356A90783570700D58F23101E
:10476000F7008347440199CB084C9145EFD05F98FF
:104770004C4C084C93B51500EFD0BF9D4C4026859E
:10478000A53D834584002685EFF07FDE4C442685D9
:10479000EFF0DFD50C482685D1359307C007B387E6
:1047A000F4029D46CE97B8432300D700D85F930606
:1047B00000042300D700B85785462300D700B44330
:1047C00003C706001377F7032380E600D45F03C70F
:1047D0000600136747002380E600945F03C70600C6
:1047E000136787002380E600185019CFD45F03C7F2
:1047F0000600136717002380E600985F83470700D1
:1048000093E787002300F7009307C007B384F402FF
:104810000549B7E600E013068002A285CE94F85859
:10482000268593575700938707048A073317E900B3
:10483000B69798C3EF00D0060145238C240755BDD9
:1048400003258902EFD0DF8A0325C9029145EFD005
:104850003F8A0325C9028545EFD0BF8F032709078B
:104860008357A9078356070093C7F7FFF58FC5BD88
:10487000011106CE22CC26CA4AC88D4763F3A7028F
:10488000979500009385858B179500001305858B00
:10489000EF10500B7D55F2406244D244424905610D
:1048A00082802E8999E10145FDB775DEAA849307C0
:1048B000C007B387F40217C5FF1F130565472A8495
:1048C000AA9703C7470119C7CC4F884F32C6EFD00C
:1048D0005F8832469307C007B387F4020147A145BA
:1048E000A297B453631CC7021305C0073385A40203
:1048F000229583C7060093F7F70FE5FF7C4583C732
:10490000070093F70704F5D783474501C9DF4C4DEE
:10491000084D93B51500EFD0DF8371B703C50600CE
:10492000E382A5FC3305E900B44F03450500050704
:104930002380A6007DB7011126CA52C456C25AC0B0
:1049400006CE22CC4AC84EC6AA84AE8A328B368A9C
:1049500011228D4763F79702978500009385057EA6
:10496000178500001305057EEF10C07D7D55F240D0
:104970006244D2444249B249224A924A024B0561FA
:1049800082809307C007B387F40297C4FF1F938404
:10499000243A2A89AE890144BE9483C784078DEFE7
:1049A00097850000938585791785000013050574A8
:1049B00065BFF84893071400C207034707005694E1
:1049C000C1832300E4003E8463FE6701FC4C83C77F
:1049D000070093F7F70FF1FF4A85CE85492099E14B
:1049E000E36645FF228561B783C7C18285E7411130
:1049F00081461386416381451D4506C697C0FF1F4A
:104A0000E78040D2B24085472386F1821385416317
:104A100041018280138541638280411106C655227F
:104A20009307803E3355F502B2409306F5FF33B548
:104A3000A6003687B7F600E098CA9307F5FFDCCAF0
:104A40000567B7E700E023A0E7109307F0029CC2D8
:104A500041018280938701838843CC4382801387FE
:104A600001831C4358433385A740B3B7A700B30560
:104A7000B7409D8D8280914763EEB7021787000093
:104A8000130707708A05BA959C41BA978287B717B2
:104A9000004003A7470B1345F5FF698F23AAE70AD8
:104AA00003A7070B698F23A8E70A03A7070A798DD5
:104AB00023A0A70A8280B717004083A6470B13479D
:104AC000F5FFF98E23AAD70A83A6070B558D23A8D5
:104AD000A70A83A6070A758F23A0E70A8280B71763
:104AE000004003A7470B498F23AAE70A03A7070B38
:104AF0001345F5FF45BFB717004083A6470B134783
:104B0000F5FF758F23AAE70A03A7070A598D4DB74A
:104B1000B717004003A7470B498FEDB7914763EEE6
:104B2000B702178700001307E7668A05BA959C410C
:104B3000BA978287B717004003A7470D1345F5FFC3
:104B4000698F23AAE70C03A7070D698F23A8E70C39
:104B500003A7070C798D23A0A70C8280B71700400C
:104B600083A6470D1347F5FFF98E23AAD70C83A61A
:104B7000070D558D23A8A70C83A6070C758F23A0BE
:104B8000E70C8280B717004003A7470D498F23AA7F
:104B9000E70C03A7070D1345F5FF45BFB717004006
:104BA00083A6470D1347F5FF758F23AAE70C03A7CC
:104BB000070C598D4DB7B717004003A7470D498F14
:104BC000EDB7B717004003D58700420541819377C1
:104BD000050491EB9377F5013755E801130505803E
:104BE0003345F50282809377050C13070004639721
:104BF000E7009377F50137459C1CCDB72165130578
:104C000005D08280814737370040A14663C4C70082
:104C1000328582800345B740E38EA6FE3385F500DA
:104C20000345050085072304A740CDB7B7270040FB
:104C3000C8C709472380E70011472380E700828027
:104C4000411122C406C62A84AD3F2947B307E502B5
:104C5000B2408D83B3D7870222449507B3D7E702CA
:104C600037370040C207C1832316F7004101828015
:104C7000B73700402147B736004091E1828003C634
:104C8000B700E30CC7FE05050346F5FFFD15C20599
:104C90002384C600C181D5B7B687B2882A832E88FF
:104CA000639D061463F9C50A4167636EE61AB70788
:104CB00000016363F63493568601E14717870000CD
:104CC0001307874E369703470700BA97130700026A
:104CD0001D8F19CB3398E500B357F500B318E600E4
:104CE00033E807013313E50013D608013355C80232
:104CF00093960801C182935703013377C802B385A5
:104D0000A60242073368F700637AB8004698930713
:104D1000F5FF636418016367B8303E853308B84017
:104D20003357C8024203135303013378C802B386D2
:104D3000E602420833686800637BD8004698930710
:104D4000F7FF6365180179176363D8003E87420552
:104D5000598D8145828001E60547B358C7024167F6
:104D600063EAE80EB707000163ECF82893D68801E0
:104D7000E14717870000130727433697834607004C
:104D8000BE9693070002958FE5EB939E080133874B
:104D9000154113DF080193DE0E018545935703018A
:104DA0003355E7033377E703B306D5034207D98FBB
:104DB00063FAD700C6971307F5FF63E4170163E6AC
:104DC000D7263A85958F33D7E70342031353030160
:104DD000B3F7E703B30ED703C207B3E7670063FB7C
:104DE000D701C6979306F7FF63E51701791763E3C9
:104DF000D70136874205598D828063E2D504C167A9
:104E000063E2F604B707000163E4F61E13D78601D8
:104E100061489787000093872739BA9703C707002F
:104E2000130E00024297330EEE40631A0E0C63ED30
:104E3000B61C3335C5001345150081458280814578
:104E4000014582809307F00F63F3D71C13D78600C8
:104E50002148C1B71307F00FC686E37C17F193D63C
:104E60008800A14739B71307F00FB286E378C7E48B
:104E700093568600A14799B5B398F80033D6D5006C
:104E800013DF0801335EE6033397F500B356D50010
:104E9000558F939E080193DE0E013313F500935551
:104EA0000701B376E603B387CE03C206CD8E63FB5C
:104EB000F600C6961306FEFF63E4161763F2F616B5
:104EC000791EC6969D8E33D6E60393170701C183DC
:104ED000B3F6E6033385CE02139706015D8F637B3D
:104EE000A70046979307F6FF636817136376A71228
:104EF0007916469793150E01098FD18D45B5B35795
:104F0000E600B396C601DD8E33D3E50013DF06015C
:104F1000B357E303939E060193DE0E013398C50158
:104F20003357E50033680701935808013316C6016B
:104F30003373E303B385FE024203B368130163FBDB
:104F4000B800B6981387F7FF63EAD80C63F8B80C7B
:104F5000F917B698B388B84033D7E8034208135816
:104F60000801B3F8E8033383EE02C208B3E5080191
:104F700063FB6500B6951308F7FF63EDD50863FB87
:104F800065087917B695C207416FD98F1307FFFFE0
:104F9000B3F6E70093D80701718F4182B38EE60222
:104FA000B3856540B386C60213D80E013387E80285
:104FB000BA96C2963386C80263F3E6007A9693D80F
:104FC0000601469663E2C5026385C5003E858145BC
:104FD000828041677D17F98EC206B3FEEE0033155D
:104FE000C501F696E374D5FE1385F7FF81458280EF
:104FF00013D70601414831BD93560601C1477DB91B
:1050000093D60801C147B5B38145054582803687EF
:10501000014801B5428785BF3E86E9BDBA871DBFFD
:10502000328E4DB579154698D5B97915C69759BBC5
:105030000325C50E828093878180AA858843C1A2FB
:1050400085E141116C00014511CA795581CA834738
:1050500006009CC1034506003335A0004101828053
:10506000014519CA795589CA834706009CC1034581
:1050700006003335A0008280828001476314E60079
:1050800001458280B307E5000507B386E50083C7C5
:10509000070083C6F6FFE383D7FE3385D7408280BF
:1050A000B3C7A5008D8B3307C50081E78D4763EE3D
:1050B000C700AA876370E50A83C6050085078505D2
:1050C000A38FD7FEE3EAE7FE828093763500AA87B6
:1050D00091CA83C6050085078505A38FD7FE93F681
:1050E0003700FDB79376C7FF138606FE63F0C70649
:1050F00083A3050083A2450083AF850003AFC500ED
:1051000083AE050103AE450103A3850183A8C50154
:105110009385450223A0770003A8C5FF23A257006B
:1051200023A4F70123A6E70123A8D70123AAC701D7
:1051300023AC670023AE17019387470223AE07FF16
:1051400075B790419107910523AEC7FEE3EBD7FEFB
:10515000E3E4E7F68280DDC183A7C5FF411122C4E5
:1051600006C626C21384C5FF63D307003E94AA84F3
:10517000EF30F039938781839C4381EF2322040031
:1051800023AC81822244B2402685924441016F3093
:105190003038637EF40014403307D4006396E70090
:1051A0009843DC43369718C05CC0D9BFBA87D84350
:1051B00019C3E37DE4FE94433386D700631F860062
:1051C0001040B29694C33386D700E31DC7FA10434C
:1051D0005843B29694C3D8C375B76375C400B1473A
:1051E0009CC04DB71040B306C4006316D7001443EB
:1051F0005843B29614C058C0C0C369B78280011129
:1052000026CA93843500F19806CE22CC4AC84EC6F1
:10521000A104B14763F5F404B14463E4B4042A89FA
:10522000EF30F02E9387818398433A8429E4938763
:10523000C1839C4399E781454A85EF10A00323AEC3
:10524000A182A6854A85EF10E002FD596319350752
:10525000B1472320F9004A85EF30902B29A0E3DEE7
:1052600004FAB1471CC10145F2406244D2444249AC
:10527000B249056182801C40858F63CF0702AD462D
:1052800063F6F6001CC03E9404C031A05C4063137A
:10529000870223ACF1824A85EF3090271305B400D2
:1052A0009307440061993307F5405DDF3A94898F95
:1052B0001CC05DBF5CC3C5B72287404085BF1304D7
:1052C00035007198E30285FCB305A4404A85EF00E0
:1052D000707AE31B35FBADBF797122D44AD052CC32
:1052E00056CA5AC806D626D24ECE3A8AAE8A3284DA
:1052F0003689428B014763580600370700803344E4
:10530000C7001307D0022380E70093F4F8FD93074A
:1053100060048D466388F4009307500489466393C4
:10532000F4000509DA879308C100130881004A8751
:10533000D6852286EF20601693077004AA896396AB
:10534000F400137A1A00630A0A0493076004338A8C
:1053500029016397F40203C7090093070003631E42
:10536000F700014681465685A285EF50701311C59E
:1053700085473389274123202B0183270B003E9A41
:10538000014681465685A285EF50901111E152C623
:1053900013070003B24763E24703B2474257B250D4
:1053A0002254B38737411CC34E8592540259F249A7
:1053B000624AD24A424B456182809386170036C6C4
:1053C0002380E700C1BF2300C50013072500930712
:1053D000B00263D60500B305B0409307D002A30026
:1053E000F500A54763DAB70441119307F100BE88C1
:1053F000294813033006B3E605031386F7FF9386A7
:105400000603A38FD7FEB3C60503634DB30093868F
:105410000603F917A30FD6FE63E917013305A7406A
:1054200041018280B287B685F9B7850783C6F7FF49
:105430000507A30FD7FECDB7930700031307450059
:10544000938505032301F500A301B5003305A740AB
:10545000828019713ACE86DEA2DCA6DA2E84CAD802
:10546000CED6D2D4B689DAD0DECEE2CC3289D6D24C
:10547000E6CAEAC8EEC6AA84EF308076832B050020
:105480005E85EF00F066032B0400724702DC937622
:105490000B102A8C034A84011C43F1CA93864700EF
:1054A00014C39C43081098433AD0D8433AD2984743
:1054B0003AD4DC473ED6EF60F02828C46CC4832C75
:1054C000C40417870000130767DF832A8404032DB1
:1054D0000700832D470093971C0085836A86EE861C
:1054E0005685BE853ECEEF60E05741EDF2476A86B5
:1054F000EE865685BE85EF50300C6354A0080146F9
:1055000081465685E685EF50300B635605009307BC
:10551000D002A301F40493077004978A0000938AD1
:105520006ADA63F64701978A0000938AEAD9137B07
:10553000BBFF8D47232064011CC8014B4E87CA86E0
:105540007018A2852685C12EFD5C631E95157D55BC
:10555000F6506654D6544659B659265A965A065BA2
:10556000F64B664CD64C464DB64D096182809D0780
:10557000E19B9386870014C39843DC4338C47CC402
:105580003DBF5686E6865685E685EF60A04D11CD77
:1055900093077004978A0000938A4AD3E3F947F986
:1055A000978A0000938ACAD259B75C407D57137D11
:1055B000FA0D6395E70899475CC0544013670B40A8
:1055C0003C18D6853EC018C09307310302C2D2886A
:1055D0001308410366862685EFF01FD093077004F9
:1055E000AA8AD255631BFD00F55763C5F5005C40E0
:1055F00063D8B708791A137AFA0F9307500663E64F
:105600004705FD155286130504052EDAEFF0BFDBC2
:10561000625785462A8BB307A7001CC863C5E600FE
:105620001840058B19C385071CC883473103E387DE
:1056300007F09307D002A301F40409B7130770041D
:10564000E31DEDF6BDFB854785BF93076006631B31
:10565000FA025C40635BB0000CC881E71840058B20
:1056600009CF8507AE971CC809A889E71840854669
:10567000058B19C39386270014C82CCC014B75B732
:10568000130A7006E25763C9F5001C400CC8858BED
:10569000EDD793871500C1BF05476344B0000947A4
:1056A0000D8FBA97C9B71C4013F7074015E314488C
:1056B0005686CA8526858299E30B95E91C40898B1D
:1056C00063960724F2574844E354F5E83E8549B50C
:1056D00013075006637B471928446C4401468146F2
:1056E000EF50005C39E9854617860000130686BE38
:1056F000CA8526858299E30C95E55257E2576345A2
:10570000F7001C40858BDDDBE2865E86CA85268538
:105710008299FD57E30DF5E2014A930AA4017D5BEE
:10572000E257FD17E35CFAF885465686CA8526855A
:105730008299E30E65E1050AE5B7D2576346F006A4
:105740008546178600001306E6B8CA852685829925
:10575000E30F95DFD2576257D98F81E71C40858BC5
:10576000B1DFE2865E86CA8526858299FD57E30011
:10577000F5DE014A130BA401FD5BD257B307F040DD
:10578000634BFA00E2565686CA8526858299FD57F4
:10579000E316F5F26DBB85465A86CA852685829941
:1057A000E30775DB050AD1BF3C4C625A63D347015E
:1057B0003E8A635A4001D2865686CA8526858299DA
:1057C000FD57E306F5D8814C130DA401FD5D09A832
:1057D00085466A86CA8526858299E30AB5D7850CEF
:1057E000032B8405D28763530A008147B307FB402C
:1057F000E3C0FCFE5257E257634DF7021C40858B15
:105800008DEBE2575257338AE7406344EB00338A0B
:105810006741635B4001D28633866A01CA8526856B
:105820008299FD57E305F5D2814A130BA401FD5B74
:1058300015A0E2865E86CA8526858299FD57E31209
:10584000F5FC31B385465A86CA8526858299E300E0
:1058500075D1850A5257E257998F528763530A00D0
:105860000147998FE3C0FAFE91BDE25605476344B4
:10587000D700858BB5C785465686CA852685829909
:105880007D5AE30645CDE2865E86CA8526858299E5
:10589000E30F45CB28446C4401468146EF5040401D
:1058A0001DC9E25613861A00CA85FD1626858299FF
:1058B000E30F45C9DA8613060405F9B58546568611
:1058C000CA8526858299E30475C9050AE257FD1742
:1058D000E346FAFEC5B7014A930AA401FD5BFDB792
:1058E00085465686CA8526858299E31595FD85B13C
:1058F00085465686CA8526858299E30A65C5050AC6
:105900005C447257998FE345FAFE6DBB014A930AD6
:1059100094017D5BF5B7797156CA9C49BA8A98455E
:1059200022D426D24ECE52CC06D64AD05AC85EC613
:10593000AA892E84B284368A63D3E700BA879CC0D2
:105940000347340419C385079CC01C4093F7070222
:1059500081C79C4089079CC0032904001379690012
:10596000631A0900130B9401FD5B5C449840998F06
:10597000634CF9041C408346340493F70702B336A2
:10598000D000A5EB13063404D2854E85829AFD57CC
:105990006303F5041C4011469840998B544481449C
:1059A0006397C700B384E64063D3040081441C447A
:1059B00018486354F700998FBE94014969047D5BD0
:1059C00063982405014509A885465A86D2854E85E7
:1059D000829A631E75017D55B25022549254025929
:1059E000F249624AD24A424BB24B45618280050974
:1059F000ADBF3307D40013060003A301C704034758
:105A0000540493871600A2978906A381E7049DBFDB
:105A100085462286D2854E85829AE30E65FB05096E
:105A200045B7797122D426D24AD04ECE06D652CC72
:105A300056CA5AC8B68983C685019307900632892B
:105A4000AA842E8413863504638DF60263E2D7069A
:105A5000930780056389F61863EDD70063820622F9
:105A600093073004638FF60A930A24042301D404B5
:105A7000D1A0930730066386F60A93074006E395A4
:105A8000F6FE1C40084393F6070893054500CDC673
:105A90001C410CC363D807001307D002B307F040C2
:105AA000A301E4049786000093860683294775A81E
:105AB000930700076385F61663E5D7029307E006B0
:105AC000638CF6189307F006E390F6FA0C401C433B
:105AD00013F80508138547006308080608C39C43AC
